:0C0000000C949C000C9400000C94000078
:10000C000C9400000C9400000C9400000C94000064
:10001C000C9400000C9400000C9400000C94000054
:10002C000C9400000C9400000C9400000C94000044
:10003C000C9400000C9400000C9400000C94000034
:10004C000C9400000C9400001027E80364000A00D4
:10005C00010000100001100001003738392F343531
:10006C00362A3132332D63303D2B00000000000066
:10007C000000000000000000000000000000000074
:10008C000000000000000000000000000000000064
:10009C000000000000000000000000000000000054
:1000AC000000000000000000000000000000000044
:1000BC000000000000000000000000000000000034
:1000CC000000000000000000000000000000000024
:1000DC000000000000000000000000000000000014
:1000EC000000000000000000000000000000000004
:1000FC0000000000000000000000000000000000F4
:10010C0000000000000000000000000000000000E3
:10011C0000000000000000000000000000000000D3
:10012C00000000000000000000000000F894EE2722
:10013C00ECBBF1E0FBBFEBBFE5BF8DE0A2E0BB2762
:10014C00ED938A95E9F780E094E0A0E6ED930197B2
:10015C00E9F7EFE5EDBFE4E0EEBFC0E6D1E00C94CB
:10016C00A606AA93E881EBBBC09804C0AA93E881C9
:10017C00EBBBC09AC19AA1E0B0E00E94B007C19855
:10018C0021960895609780E1A0E0B0E0E6E6F0E00B
:10019C000E94CF090E94C30900E010E00430E0E0A7
:1001AC001E076CF5E02FA1E00E944909E095E5BB24
:1001BC009C9907C020E030E09C9BFECF0E94B806C3
:1001CC0031C09D9907C021E030E09D9BFECF0E947D
:1001DC00B80628C09E9907C022E030E09E9BFECF57
:1001EC000E94B8061FC09F9907C023E030E09F9B78
:1001FC00FECF0E94B80616C00F5F1F4FCFCF80995D
:10020C0004C0809BFECFE8E20DC0819904C0819BA5
:10021C00FECFE9E207C0829904C0829BFECFE2E6E2
:10022C0001C0BACF0E94CA0964960895EF97EF9760
:10023C00EF97249781ECA0E0B0E0E6E7F0E00E94B5
:10024C00CF090E94C10900E010E020E030E040E05E
:10025C0050E0A1E086DFAF81AD3311F0A33609F495
:10026C0059C190DFEF83E8E2F0E0E017F10721F4E9
:10027C00AF81A23609F04DC1EF810E94C30621F077
:10028C00E133A0E0FA0709F404C0E233A0E0FA0776
:10029C0009F404C0E333A0E0FA0709F404C0E43322
:1002AC00A0E0FA0709F404C0E533A0E0FA0709F46A
:1002BC0004C0E633A0E0FA0709F404C0E733A0E079
:1002CC00FA0709F404C0E833A0E0FA0709F404C003
:1002DC00E933A0E0FA0771F4AE81A93219F0AF81CD
:1002EC0045DF02C00E94C806F8010E94D906E9E663
:1002FC00EE830FC1EB32A0E0FA0721F0ED32A0E063
:10030C00FA0709F404C0EA32A0E0FA0709F404C0C1
:10031C00EF32A0E0FA0709F500240016010629F0D7
:10032C00AE81A83211F0AF3609F405C00E94E30685
:10033C000F5F1F4F08C0AE81AF3671F4A0E111DF23
:10034C000E94E3063197DE01AA5BBF4FEA0FFB1F49
:10035C00AF81A083EFE6EE83DCC0E832A0E0FA07C1
:10036C00C9F400240016010629F0AE81A83211F060
:10037C00AF3629F40E94E3060E94D90606C00E94FB
:10038C00C8060E94E806E8E2EC932F5F3F4FE8E2D4
:10039C00EE83BFC0E932A0E0FA0709F04CC000249C
:1003AC000216030629F0AE81A83211F0AF3609F41B
:1003BC0009C00E94E3060E94D90621503040E9E2B0
:1003CC00EE8338C0AE81A832A9F50E94F106215007
:1003DC003040025010400E94E806EC91EE83E0336E
:1003EC0011F0E13309F402C0E23309F402C0E33343
:1003FC0009F402C0E43309F402C0E53309F402C085
:10040C00E63309F402C0E73309F402C0E83309F417
:10041C0002C0E93319F4E9E6EE830CC0EB3211F0BB
:10042C00ED3209F402C0EA3209F402C0EF3211F4E1
:10043C00EFE6EE836EC0E236A0E0FA0709F069C081
:10044C00002E012A09F465C00E94F1060E94FA06EA
:10045C00A83219F42150304006C00E94FA06A93285
:10046C0011F42F5F3F4FE1E0F0E0E017F10729F4C2
:10047C00F80131978F01EE834CC0025010400E945E
:10048C00E806EC91EE830E94C30621F0E133A0E074
:10049C00FA0709F404C0E233A0E0FA0709F404C037
:1004AC00E333A0E0FA0709F404C0E433A0E0FA0750
:1004BC0009F404C0E533A0E0FA0709F404C0E633FC
:1004CC00A0E0FA0709F404C0E733A0E0FA0709F446
:1004DC0004C0E833A0E0FA0709F404C0E933A0E053
:1004EC00FA0719F4E9E6EE8314C0EB32A0E0FA0740
:1004FC0021F0ED32A0E0FA0709F404C0EA32A0E0E2
:10050C00FA0709F404C0EF32A0E0FA0711F4EFE6A1
:10051C00EE83A1CEAF81AD3309F00BC4DE01AA5B33
:10052C00BF4FA00FB11FE0E0EC93002400160106B2
:10053C00A9F00E94FA06A83281F00E94FA06AB32AA
:10054C0061F00E94FA06AD3241F00E94FA06AA321E
:10055C0021F00E94FA06AF3209F401C00EC00E94CD
:10056C00FA06A83211F421503040F80131978F016E
:10057C000E940307E0E0EC93D8CF022E032A39F057
:10058C000E94E806E9E2EC9321503040F6CF002EB1
:10059C00012A09F4CEC30E9409070E941007A01774
:1005AC00B1070CF096C00E941707EC910E94C3068D
:1005BC0021F0E133A0E0FA0709F404C0E233A0E033
:1005CC00FA0709F404C0E333A0E0FA0709F404C005
:1005DC00E433A0E0FA0709F404C0E533A0E0FA071D
:1005EC0009F404C0E633A0E0FA0709F404C0E733C9
:1005FC00A0E0FA0709F404C0E833A0E0FA0709F414
:10060C0004C0E933A0E0FA0701F50E941E0761F06F
:10061C000E942C07AD3241F00E942C07AA3221F027
:10062C000E942C07AF3231F40E943207AE0FBF1F6D
:10063C00E0E2EC930E943207EA0FFB1FBF010E941D
:10064C001707EC91DB01EC9341C0EB32A0E0FA0709
:10065C0021F0ED32A0E0FA0709F404C0EA32A0E080
:10066C00FA0709F404C0EF32A0E0FA0721F50E9462
:10067C001E0761F00E942C07AD3241F00E942C073E
:10068C00AA3221F00E942C07AF3209F406C00E9456
:10069C003207AE0FBF1FE0E2EC93FA014F5F5F4FE2
:1006AC00DE011896EA0FFB1FBF010E941707EC91A1
:1006BC00DB01EC930BC0E932A0E0FA0739F4042E0D
:1006CC00052A21F00E9432070E943E070E944C0727
:1006DC0064CF042E052A29F00E9432070E943E079F
:1006EC00F8CF00E010E00E9455070E945C070E94C2
:1006FC000907FE01EB53FF4F0190F081E02D0E94A2
:10070C001007AE17BF070CF085C1FE01ED53FF4F6C
:10071C000190F081E02DDE015D96AE0FBF1FEC91D4
:10072C00F0E0E032A0E0FA0739F4F80131960E94CB
:10073C0065070E945C076BC1E033A0E0FA0779F40F
:10074C000E945507EA0FFB1FFF93EF930E9455077A
:10075C000E946C07AF91BF910E94A20958C1E1336E
:10076C00A0E0FA07A9F40E945507EA0FFB1FFF93BC
:10077C00EF930E9455070E946C07A0E0B0E080E860
:10078C009FE30E945A08AF91BF910E94A2093FC1FA
:10079C00E233A0E0FA07A9F40E945507EA0FFB1F09
:1007AC00FF93EF930E9455070E946C07A0E0B0E006
:1007BC0080E090E40E945A08AF91BF910E94A20978
:1007CC0026C1E333A0E0FA07A9F40E945507EA0F0B
:1007DC00FB1FFF93EF930E9455070E946C07A0E04C
:1007EC00B0E080E490E40E945A08AF91BF910E945F
:1007FC00A2090DC1E433A0E0FA07A9F40E94550741
:10080C00EA0FFB1FFF93EF930E9455070E946C07A2
:10081C00A0E0B0E080E890E40E945A08AF91BF914C
:10082C000E94A209F4C0E533A0E0FA07A9F40E94E3
:10083C005507EA0FFB1FFF93EF930E9455070E9489
:10084C006C07A0E0B0E080EA90E40E945A08AF91F7
:10085C00BF910E94A209DBC0E633A0E0FA07A9F41D
:10086C000E945507EA0FFB1FFF93EF930E94550759
:10087C000E946C07A0E0B0E080EC90E40E945A0863
:10088C00AF91BF910E94A209C2C0E733A0E0FA0762
:10089C00A9F40E945507EA0FFB1FFF93EF930E94E8
:1008AC0055070E946C07A0E0B0E080EE90E40E9437
:1008BC005A08AF91BF910E94A209A9C0E833A0E0E9
:1008CC00FA07A9F40E945507EA0FFB1FFF93EF9359
:1008DC000E9455070E946C07A0E0B0E080E091E414
:1008EC000E945A08AF91BF910E94A20990C0E933AF
:1008FC00A0E0FA07A9F40E945507EA0FFB1FFF932B
:10090C00EF930E9455070E946C07A0E0B0E080E1D5
:10091C0091E40E945A08AF91BF910E94A20977C03E
:10092C00EB32A0E0FA07D1F40E947707EA0FFB1F25
:10093C00FF93EF93DF010E949C097F936F93FF93CA
:10094C00EF930E947A07AF91BF918F919F910E9474
:10095C005A08AF91BF910E94A20959C0ED32A0E094
:10096C00FA07D1F40E947707EA0FFB1FFF93EF936E
:10097C00DF010E949C097F936F93FF93EF930E947A
:10098C007A07AF91BF918F919F910E948607AF918B
:10099C00BF910E94A2093BC0EA32A0E0FA07D1F451
:1009AC000E947707EA0FFB1FFF93EF93DF010E9472
:1009BC009C097F936F93FF93EF930E947A07AF91FB
:1009CC00BF918F919F910E94AA08AF91BF910E94F5
:1009DC00A2091DC0EF32A0E0FA07C9F40E94770704
:1009EC00EA0FFB1FFF93EF93DF010E949C097F939B
:1009FC006F93FF93EF930E947A07AF91BF918F9102
:100A0C009F910E94F808AF91BF910E94A2090E9489
:100A1C004C076FCEA1E0A5DBFE01E159FF4F019021
:100A2C00119061917081F0010E94E907AF010E9461
:100A3C008B070E9494070E949907E1E0F0E0DE0129
:100A4C00AD53BF4FED93FC93DE01AE58BF4FAC914D
:100A5C00AA2312F05523A2F4FA01AFEFBFEF0E94C4
:100A6C006309AF010E948B07E0E0F0E060E87FEBE8
:100A7C000E94AA080E9499070E944C07ADE276DBFF
:100A8C000AE010E0F801DA010E947B090E94B90922
:100A9C004CF40E944C07F801AAE0B0E00E946309F4
:100AAC008F01F0CF0E94A107002E012A09F44FC03C
:100ABC00F801DA010E947B09309719F4A0E356DBA8
:100ACC003EC0E130A0E0FA0719F4A1E34FDB37C0D8
:100ADC00E230A0E0FA0719F4A2E348DB30C0E330BF
:100AEC00A0E0FA0719F4A3E341DB29C0E430A0E04D
:100AFC00FA0719F4A4E33ADB22C0E530A0E0FA07C8
:100B0C0019F4A5E333DB1BC0E630A0E0FA0719F4B7
:100B1C00A6E32CDB14C0E730A0E0FA0719F4A7E336
:100B2C0025DB0DC0E830A0E0FA0719F4A8E31EDBC2
:100B3C0006C0E930A0E0FA0711F4A9E317DBF801CD
:100B4C00DA010E948009AF010E94A107ADCFFE011E
:100B5C00E159FF4F34960E948B070E94A70907E0CA
:100B6C0010E0002400160106B4F4FE01E159FF4F19
:100B7C003496FF93EF93DF010E949C09A0E0B0E054
:100B8C0080E291E40E94AA08AF91BF910E94A20951
:100B9C0001501040E6CFFE01ED58FF4F019011902F
:100BAC0061917081F0010E94E9079F01022E032AD6
:100BBC0009F4BCC00E944C073197A7E0B0E0AE1B13
:100BCC00BF0B0E94BD090CF0B1C0AEE2CFDA40E021
:100BDC0050E007E010E00024001601060CF0A6C05F
:100BEC000E94A8070E94E9079F010E94A807DF0145
:100BFC00CB01F9010E9494070E949907F9013097E3
:100C0C0019F44F5F5F4F8FC0E130A0E0FA0761F439
:100C1C000024041605062CF4A0E3A8DA4150504039
:100C2C00F7CFA1E3A3DA7FC0E230A0E0FA0761F4CA
:100C3C000024041605062CF4A0E398DA4150504029
:100C4C00F7CFA2E393DA6FC0E330A0E0FA0761F4C8
:100C5C000024041605062CF4A0E388DA4150504019
:100C6C00F7CFA3E383DA5FC0E430A0E0FA0761F4C6
:100C7C000024041605062CF4A0E378DA4150504009
:100C8C00F7CFA4E373DA4FC0E530A0E0FA0761F4C4
:100C9C000024041605062CF4A0E368DA41505040F9
:100CAC00F7CFA5E363DA3FC0E630A0E0FA0761F4C2
:100CBC000024041605062CF4A0E358DA41505040E9
:100CCC00F7CFA6E353DA2FC0E730A0E0FA0761F4C0
:100CDC000024041605062CF4A0E348DA41505040D9
:100CEC00F7CFA7E343DA1FC0E830A0E0FA0761F4BE
:100CFC000024041605062CF4A0E338DA41505040C9
:100D0C00F7CFA8E333DA0FC0E930A0E0FA0759F4C3
:100D1C000024041605062CF4A0E328DA41505040B8
:100D2C00F7CFA9E323DA0150104055CF2BDAE33685
:100D3C00E9F70E94C809EF96EF96EF962A96089568
:100D4C00EFEFEABBE7B3E360E7BBEFE0E4BBE8EF50
:100D5C00E1BBE7E0E2BBA8E304DAACE002DA66DA76
:100D6C00FECFFFCFF801DE0114960E945109EA0F65
:100D7C00FB1FE20FF31FE0810895F0E0E033A0E0E9
:100D8C00FA070895AAE20E94BC00AF810E94BC0041
:100D9C00F8010F5F1F4FDE01AA5BBF4FAE0FBF1FE5
:100DAC00EAE2EC9308950F5F1F4FDE01AA5BBF4F81
:100DBC00EA0FFB1FAF81A0830895AF810E94BC0096
:100DCC00F8010895F8010F5F1F4FDE01AA5BBF4FBA
:100DDC00AE0FBF1F0895A0E10E94B700A0E00E94D3
:100DEC00BC00A0E10C94B700F8013197DE01AA5BBE
:100DFC00BF4FAE0FBF1FAC910895DE01AA5BBF4F72
:100E0C00AE0FBF1F0895E0E0DE01AD53BF4FED9371
:100E1C00EC930895DE01AD53BF4F0D90BC91A02D06
:100E2C000895FE01ED53FF4F0190F081E02DE5CFC9
:100E3C00FE01EB53FF4F0190F081E02D3197DE0165
:100E4C005D96AE0FBF1FAC91AB320895DE015D967F
:100E5C00AE0FBF1FAC910895DE01AB53BF4FED91A8
:100E6C00FD913196FE93EE933197DE015D960895D8
:100E7C00EA0FFB1F0F01FA013197AF01DE01189643
:100E8C00AE0FBF1FEC91D001EC930895DE01AD5372
:100E9C00BF4FED91FD913196FE93EE930895F801BD
:100EAC00DE01A159BF4F0E9451090895AE0FBF1F1B
:100EBC00E0E0F0E060E070E00E94A20908958F018C
:100ECC00DE01A159BF4F0E9451090895AE0FBF1FFB
:100EDC000E949C09A0E0B0E080E291E40E94AA0884
:100EEC000895F8013197EBCFF8013196DE01A15945
:100EFC00BF4F0E945109AE0FBF1F0E949C0908955D
:100F0C000E94AC090E9453080895DE01A159BF4FFD
:100F1C000D901D908D919C91D00108950E945609C1
:100F2C000E942008EDCFDE01A159BF4FED93FD9338
:100F3C006D937C930895D801EAE0F0E00E947B0960
:100F4C008F010895E2DFE0E0F0E060E271E40E94DE
:100F5C00AA080895109639F080ED97E00197F1F703
:100F6C00A8951197C9F70895552342F4503811F4F8
:100F7C00E0FF04C03196691F791F6BF050E85727CA
:100F8C0011F45F93CFC05F3F31F0660F000C5795A3
:100F9C006795752F08955F9300200AF0CFC0C8C0E5
:100FAC0050E8192E1522880F991F9527550F8795F4
:100FBC0050E8072E0522660F771F7527550F67958A
:100FCC000895689401C0E8945F93F2DF703818F0CC
:100FDC007F3F08F4A7C056E1571BAAF4519558302F
:100FEC000EF4593030F0EFEFFFEF6FEF7FE777F94A
:100FFC001AC077275523B9F0EE0FFF1F661F771F16
:10100C005A95D1F710C07727583028F0EF2FF62FCC
:10101C00672F5850F9CF552331F076956795F79592
:10102C00E7955A95D1F700200AF425D15F910895E0
:10103C00689401C0E894309760407040B1F000248F
:10104C0026F0772312F4009416D1172E7EE111208E
:10105C0032F07A95EE0FFF1F661F111CF9CFEF2FA0
:10106C00F62F612D5F938ADF5F9108954F93AF0147
:10107C00FD01DA01AB01BC01CA01402D012C142E7B
:10108C004F910895EA0FFB1F681F0895E095F095A6
:10109C006095EF5FFF4F6F4F08955F9381DF90383E
:1010AC0071F150E8152604C05F937ADF903839F15E
:1010BC00703821F1572F591B2BF112F4D7DFFACFCF
:1010CC00583118F0AA27BB278827583028F0AB2FA7
:1010DC00B82F88275850F9CF552329F08695B79506
:1010EC00A7955A95D9F7502D512572F0CBDF38F4CE
:1010FC006795F795E795739513F420C0B7DF3EDF3E
:10110C005F910895D8F7FBCFEA1BFB0B680B51F0EE
:10111C0010F40094BBDF662392F3EE0FFF1F661FE3
:10112C007A95CBF7EE27FF27662777275F910895EF
:10113C00EFEFFFEF6FE77FEF5F910895EFEFFFEFBA
:10114C006FE77FE75F9108955F932ADF703851F363
:10115C00903841F301240894791F23F41CF30020E8
:10116C003AF3ECCF0F921F932F933F934F9311278A
:10117C0022279927689FA0018F9F302D410D591F61
:10118C006B9F300D411D591F8E9F27D0BF9F25D0BF
:10119C006A9F23D0BE9F1DD0AF9F1BD0AE9F110D59
:1011AC00291F391F491F591FE32FF42F652F522F69
:1011BC004F913F912F911F910F9066232AF0550F5D
:1011CC00EE1FFF1F661F02C073954BF2CDDE5F91C1
:1011DC000895100D211D391F02C0200D311D491F0E
:1011EC00591F08955F93DCDE703821F411200AF446
:1011FC009FCFA4CF903809F495CF01240894970B76
:10120C001BF4D4F30020F3CF792F1F932F933F932C
:10121C004F9311241127222733274427552790E277
:10122C00AE17BF078607410730F0AE1BBF0B860B0E
:10123C00410B089401C08894551F221F331F111CA9
:10124C00AA1FBB1F881F441F9A9551F7F901612DE6
:10125C004F913F912F911F91662332F0550FEE1F46
:10126C00FF1F661F7A9543F27FDE5F910895F1951B
:10127C00E195F0400895F09560957095E195FF4FDC
:10128C006F4F7F4F0895EE230E2EEA2F19F0EE0FBD
:10129C000A94E9F70895EE0FFF1FEE0FFF1F089554
:1012AC006F2F660F660B762F0895FA9FF02DEB9F2C
:1012BC00F00DEA9FE02DF10D08952AD0F6DF0EF423
:1012CC00D6DF08950024112490E1AA0FBB1F001C47
:1012DC00111C0E1A1F0A18F40E0E1F1E01C0A1605D
:1012EC009A9599F7FD01D001089512D0EBDF0EF419
:1012FC00BEDF0895E894B7FF04C0A095B095119691
:10130C006894F7FDB4DFDEDFFD010EF4B0DF089565
:10131C00E894F7FF02C0ABDF6894B7FF06C0A09556
:10132C00B095119600F8039400FA0895ED91FD9193
:10133C006D917C9113970895ED93FD936D937C9330
:10134C000895A083B183828393830895182E862FEA
:10135C00612D192E972F712D1B2EBF2FF12D1A2EAB
:10136C00AE2FE12D089500240E160F0608950024CB
:10137C000A160B0608955A934A933A932A931A9392
:10138C000A9308955D814C813B812A8119810881E2
:10139C000895AC0FBD1F05900D928A95E1F7089545
:00000001FF
